:100000000C94E20B0C94130C0C94130C0C94130C26
:100010000C94130C0C94130C0C94130C0C94130CE4
:100020000C94130C0C94130C0C94130C0C94130CD4
:100030000C94130C0C94130C0C94130C0C94130CC4
:100040000C94130C0C94F5590C94130C0C94130C85
:100050000C94130C0C94130C0C94EA520C94DA517B
:100060000C94130C0C943F5A0C94355A0C94130CAA
:100070000C94130C0C94130C0C94130C0C94130C84
:100080000C94130C0C94130C0C94130C0C94130C74
:100090000C94130C0C94130C0C94130C0C94130C64
:1000A0000C94130C0C94130C0C94130C0C94130C54
:1000B0000C94130C0C94130C0C94130C0C94130C44
:1000C0000C94130C0C94130C0C94130C0C94130C34
:1000D0000C94130C0C94130C0C94130C0C94130C24
:1000E0000C94130C084AD73B3BCE016E84BCBFFD79
:1000F000C12F3D6C74319ABD56833DDA3D00C77FF8
:1001000011BED9E4BB4C3E916BAAAABE0000008090
:100110003F05A84CCDB2D44EB93836A9020C50B91F
:10012000918688083CA6AAAA2ABE000000803F004B
:100130000C946A220C94D9220C94C5220C94710C54
:100140000C94890C0C9498220C944C220C94580C0E
:100150000C948E220C94A7220C9460220C94410CD7
:100160000C94670C0C9442220C947B0C0C947F0C26
:100170000C9447220C9472220C94695A0C945622C7
:100180000C94640C0C94BB220C94B1220C94842229
:100190000C94770C0C945C0C0C94460C0C94930C03
:1001A0000C94CF220C948D0C0C94970C0C947A2206
:1001B0000C94600C0C94850C0C946D0C4E414E49C3
:1001C0004E495459494E46CDCCCC3D0AD7233C1715
:1001D000B7D13877CC2B329595E6241FB14F0A0062
:1001E0000020410000C84200401C4620BCBE4CCA52
:1001F0001B0E5AAEC59D74434F4D4D554E4943415C
:1002000054494F4E0044525952554E004552524F98
:10021000525300494E464F004543484F002121208C
:100220004B494C4C2063617573656420627920747E
:100230006F6F206D75636820696E616374697665A0
:100240002074696D65202D2063757272656E74204F
:10025000636F6D6D616E643A20004D343130004D36
:10026000313132004D313038005072696E74657230
:100270002073746F707065642064756520746F20DE
:100280006572726F72732E204669782074686520DB
:100290006572726F7220616E6420757365204D39CE
:1002A000393920746F20726573746172742E20283E
:1002B00054656D7065726174757265206973207222
:1002C000657365742E2053657420697420616674AB
:1002D00065722072657374617274696E67290A00B1
:1002E0004E6F20436865636B73756D207769746822
:1002F000206C696E65206E756D6265722C204C6194
:100300007374204C696E653A2000636865636B7393
:10031000756D206D69736D617463682C204C617319
:1003200074204C696E653A20004C696E65204E75EC
:100330006D626572206973206E6F74204C617374F6
:10034000204C696E65204E756D6265722B312C20D4
:100350004C617374204C696E653A20004D31313028
:1003600000627573793A2070617573656420666FF9
:100370007220696E7075740A00627573793A207024
:10038000617573656420666F7220757365720A000B
:10039000627573793A2070726F63657373696E6703
:1003A0000A006563686F3A004572726F723A002006
:1003B000496E76616C6964206578747275646572E3
:1003C00020004361703A00526573656E643A200004
:1003D0006F70656E00545249474745524544007A54
:1003E0005F6D696E00795F6D696E00785F6D696E33
:1003F000005265706F7274696E6720656E64737405
:100400006F70207374617475730A005761726E693E
:100410006E673A20486F6D696E672042756D702077
:1004200044697669736F72203C20310A004861721A
:1004300064636F6465642044656661756C74205301
:10044000657474696E6773204C6F616465640A003B
:1004500020440020490020204D33303120500050EE
:1004600049442073657474696E67733A0020204DA7
:10047000323036205800486F6D65206F66667365B0
:10048000743A00204A0020204D323035204200418D
:100490006476616E6365643A20423C6D696E5F7399
:1004A00065676D656E745F74696D655F75733E2019
:1004B000533C6D696E5F66656564726174653E206C
:1004C000543C6D696E5F74726176656C5F666565DC
:1004D00064726174653E204A3C6A756E635F646550
:1004E000763E0020204D3230342050004163636559
:1004F0006C65726174696F6E2028756E6974732FF4
:100500007332293A20503C7072696E745F61636384
:10051000656C3E20523C726574726163745F616306
:1005200063656C3E20543C74726176656C5F6163F8
:1005300063656C3E0020204D3230312058004D6103
:1005400078696D756D20416363656C65726174696E
:100550006F6E2028756E6974732F7332293A0020EC
:10056000204D3230332058004D6178696D756D2013
:100570006665656472617465732028756E6974734D
:100580002F73293A0053746570732070657220755B
:100590006E69743A0020204D3230302053002044E0
:1005A000697361626C65640A0046696C616D656EB1
:1005B000742073657474696E67733A0020286D6DDA
:1005C00029002020473231202020203B20556E6911
:1005D000747320696E206D6D003B200020436F75A1
:1005E0006E7420583A004572723A204D4158544575
:1005F0004D50004D415854454D5020747269676705
:1006000065726564004572723A204D494E54454DFD
:1006100050004D494E54454D5020747269676765CE
:1006200072656400202F0020403A002020506C6149
:100630006E6E657242756666657242797465733A6C
:1006400020002046726565204D656D6F72793A20F5
:1006500000436F6D70696C65643A204665622032B4
:100660003820323032310A00204C617374205570CA
:1006700064617465643A20323032302D31302D316E
:1006800035207C20417574686F723A20286E6F6E39
:10069000652C2064656661756C7420636F6E666995
:1006A00067290A00322E302E372E320A004D617231
:1006B0006C696E0020536F667477617265205265B5
:1006C0007365740A00205761746368646F67205211
:1006D000657365740A002042726F776E206F7574BF
:1006E0002052657365740A002045787465726E61E6
:1006F0006C2052657365740A00506F77657255708F
:100700000A00656E6473746F7073206869743A20B0
:10071000006F6B00454550524F4D20646973616214
:100720006C65640A00486F6D652025732573257319
:1007300020466972737400546F6F20666172206680
:10074000726F6D207265666572656E636520706F8D
:10075000696E740A0023646566696E6520444546C7
:1007600041554C545F004B6420004B6920004B7096
:100770002000504944204175746F74756E65206681
:10078000696E6973686564212050757420746865AA
:10079000206C617374204B702C204B6920616E6457
:1007A000204B6420636F6E7374616E747320667285
:1007B0006F6D2062656C6F7720696E746F20436F78
:1007C0006E66696775726174696F6E2E680A005093
:1007D0004944204175746F74756E65206661696C5B
:1007E0006564212074696D656F75740A005448450D
:1007F000524D414C2052554E415741590054686565
:10080000726D616C2052756E617761790048656127
:1008100074696E67204661696C656400486561743F
:10082000696E67206661696C6564005049442041C7
:1008300075746F74756E65206661696C65642120DE
:1008400054656D706572617475726520746F6F2088
:10085000686967680A00204B643A2000204B693AB7
:100860002000204B703A20000A20436C61737369AA
:100870006320504944200A002054753A2000204B40
:10088000753A2000206D61783A2000206D696E3A3B
:10089000200020643A200020626961733A200050F1
:1008A0004944204175746F74756E6520737461726C
:1008B000740A00504944204175746F74756E652048
:1008C0006661696C65642120426164206578747298
:1008D00075646572206E756D6265720A0064697375
:1008E0000043290A0061626C656420286D696E20EE
:1008F00074656D702000436F6C6420657874727548
:1009000064657320617265200020643A0020693AB2
:100910000020703A00496E76616C696420657874D5
:1009200072756465720A0020466C6F773A20004643
:10093000523A0020204D61783A200020204D696E07
:100940003A2000536F667420656E6473746F707321
:100950003A20003F4A206F7574206F662072616EE6
:1009600067652028302E303120746F20302E3329D7
:100970000A00205400205200416363656C65726177
:1009800074696F6E3A2050002F2F20004348414D6C
:100990004245525F54454D504552415455524500D1
:1009A000424142595354455050494E4700415243E9
:1009B00053004D4F54494F4E5F4D4F4445530054E3
:1009C0004845524D414C5F50524F54454354494F56
:1009D0004E004C4F4E475F46494C454E414D4500F9
:1009E0004155544F5245504F52545F53445F5354F6
:1009F00041545553005344434152440050524F4DCB
:100A000050545F535550504F525400454D45524736
:100A1000454E43595F50415253455200434153455F
:100A20005F4C494748545F4252494748544E4553EA
:100A30005300544F47474C455F4C49474854530077
:100A4000534F4654574152455F504F57455200420D
:100A500055494C445F50455243454E54004C455611
:100A6000454C494E475F44415441005A5F50524FF4
:100A700042450052554E4F5554004155544F4C4538
:100A800056454C005052494E545F4A4F4200505216
:100A90004F4752455353004155544F5245504F52C2
:100AA000545F54454D5000564F4C554D4554524996
:100AB0004300454550524F4D0042494E4152595F07
:100AC00046494C455F5452414E53464552005345AA
:100AD0005249414C5F584F4E5F584F464600464979
:100AE000524D574152455F4E414D453A4D61726CF2
:100AF000696E20322E302E372E3220284665622035
:100B0000323820323032312031383A31313A3232D3
:100B10002920534F555243455F434F44455F55523B
:100B20004C3A68747470733A2F2F676974687562F1
:100B30002E636F6D2F4D61726C696E4669726D77B1
:100B40006172652F4D61726C696E2050524F544F27
:100B5000434F4C5F56455253494F4E3A312E302049
:100B60004D414348494E455F545950453A3344201E
:100B70005072696E746572204558545255444552FE
:100B80005F434F554E543A3120555549443A6365B9
:100B90006465326132662D343161322D3437343838
:100BA0002D396231322D633535633632663336374F
:100BB00066660A004D3131332053006F666600448B
:100BC000454255473A0020573A0025697920256962
:100BD00064202569682025696D202569730050729D
:100BE000696E742074696D653A200047322F47336F
:100BF0002062616420706172616D65746572730A50
:100C00000020746F6F206C6F6E672065787472754A
:100C100073696F6E2070726576656E7465640A0024
:100C200020636F6C6420657874727573696F6E20D1
:100C300070726576656E7465640A00220A00556EEE
:100C40006B6E6F776E20636F6D6D616E643A2022FC
:100C50000020453A00205A3A0020593A0020450029
:100C6000205A00205900204D39322058002C207382
:100C7000797374656D2073746F707065642120489A
:100C800065617465725F49443A20005072696E7400
:100C900065722068616C7465642E206B696C6C28C9
:100CA000292063616C6C6564210A00000021002426
:100CB0000027002A002D003000330001010000044D
:100CC0000107010A010202040000A0400000A04048
:100CD0000000004000004843000048430000484333
:100CE00000009643000096430000A0400000C84169
:100CF0000000A0420000A04200007A450000FA4334
:100D0000B80B0000B80B00006400000010270000C2
:100D100024F4D43050C38E20C2A24017828B7011AD
:100D2000127A910D816CD90AA861E108C75866074B
:100D3000615143061E4B5D05C145A7041A411104CC
:100D4000093D9803713931034036DB026533910266
:100D5000D4305402802E1D02632CEE01752AC50189
:100D6000B028A001102781018F2564012B244B019D
:100D7000E0223401AC211F018D200D01801FFC00F9
:100D8000841EED00971DDF00B81CD200E61BC600D4
:100D9000201BBC00641AB200B219A8000A19A000F6
:100DA0006A189900D117910040178B00B51684007E
:100DB00031167E00B31579003A157300C7146F0021
:100DC00058146A00EE1366008813630025135E0052
:100DD000C7125B006C12570015125400C11151006C
:100DE00070114F0021114B00D61049008D104700A3
:100DF0004610440002104200C00F4000800F3E0029
:100E0000420F3C00060F3B00CB0E3800930E37001C
:100E10005C0E3500270E3400F30D3200C10D310099
:100E2000900D3000600D2E00320D2D00050D2C00B0
:100E3000D90C2B00AE0C2900850C29005C0C270076
:100E4000350C27000E0C2600E80B2400C40B2400F0
:100E5000A00B23007D0B23005A0B2100390B21002E
:100E6000180B2000F80A1F00D90A1E00BB0A1E003A
:100E70009D0A1D00800A1D00630A1C00470A1B0012
:100E80002C0A1B00110A1A00F7091A00DD091900C3
:100E9000C4091900AB091900920917007B09180051
:100EA000630917004C0916003609160020091600C0
:100EB0000A091500F5081500E0081400CC08140014
:100EC000B8081400A4081400900813007D0812004C
:100ED0006B0813005808120046081200340811006D
:100EE000230811001208110001081100F00710007A
:100EF000E0071000D0071000C0071000B0070F0077
:100F0000A107100091070E0083070F0074070F0060
:100F100065070E0057070E0049070E003B070D003E
:100F20002E070E0020070D0013070D0006070D0009
:100F3000F9060C00ED060D00E0060C00D4060C00CE
:100F4000C8060C00BC060C00B0060C00A4060B0082
:100F500099060C008D060B0082060B0077060B002D
:100F60006C060B0061060A0057060B004C060A00CF
:100F700042060A0038060A002E060A0024060A0065
:100F80001A060A001006090007060A00FD050900F6
:100F9000F4050900EB050900E2050900D90509007F
:100FA000D0050900C7050900BE050900B505080000
:100FB000AD050800A50509009C050800940508007A
:100FC0008C050800840508007C05080074050800ED
:100FD0006C050700650508005D050700560508005B
:100FE0004E050700470507004005080038050700C3
:100FF000310507002A050700230507001C05060028
:10100000160507000F050700080506000205070082
:10101000FB040600F5040700EE040600E8040600E1
:10102000E2040700DB040600D5040600CF04060036
:10103000C9040600C3040600BD040600B704060088
:10104000B1040500AC040600A6040600A0040500D7
:101050009B04060095040500900406008A04050020
:1010600085040500800406007A0405007504050067
:10107000700405006B0405006604050061040500AA
:101080005C04050057040500520405004D040500EA
:1010900048040500430405003E0404003A0405002A
:1010A00035040500300404002C0405002704040066
:1010B000230405001E0404001A040400160405009D
:1010C000110404000D0404000904050004040400D4
:1010D00000040400FC030400F8030400F40304000B
:1010E000F0030400EC030400E8030400E40304003C
:1010F000E0030400DC030400D8030400D40304006C
:10110000D0030400CC030400C8030300C50303009C
:1011100024F404D9201BC40C5C0E9804C4095F029B
:1011200065077101F405F900FB04B300480487006A
:10113000C10369005803550003034500BE023A008D
:101140008402310053022A002902250004022000F3
:10115000E4011C00C8011900AF0117009801140038
:1011600084011300710110006101100051010E0093
:1011700043010D0036010B002B010B0020010B0079
:10118000150109000C01090003010800FB0008001B
:10119000F3000800EB000700E4000600DE00060094
:1011A000D8000600D2000600CC000500C7000500EC
:1011B000C2000500BD000400B9000400B500040031
:1011C000B1000400AD000400A9000400A500030064
:1011D000A20003009F0004009B000300980003008E
:1011E0009500020093000300900003008D000200B0
:1011F0008B000300880002008600020084000300C8
:10120000810002007F0002007D0002007B000200DE
:1012100079000200770001007600020074000200ED
:1012200072000100710002006F0002006D000100F9
:101230006C0002006A000100690002006700010002
:101240006600010065000100640002006200010008
:1012500061000100600001005F0002005D0001000C
:101260005C0001005B0001005A0001005900010010
:101270005800010057000100560001005500010010
:10128000540001005300000053000100520001000F
:1012900051000100500001004F0001004E0000000D
:1012A0004E0001004D0001004C0001004B00000009
:1012B0004B0001004A000100490001004800000005
:1012C0004800010047000100460000004600010000
:1012D00045000000450001004400010043000000FB
:1012E00043000100420000004200010041000000F4
:1012F00041000100400001003F0000003F000100EC
:101300003E0000003E0001003D0000003D000100E5
:101310003C0000003C0000003C0001003B000000DD
:101320003B0001003A0000003A00010039000000D3
:1013300039000100380000003800000038000100CA
:1013400037000000370001003600000036000000C2
:1013500036000100350000003500000035000100B6
:1013600034000000340000003400010033000000AD
:1013700033000000330001003200000032000000A2
:101380003200010031000000310000003100010096
:101390003000000030000000300001002F0000008D
:1013A0002F0000002F0000002F0001002E00000081
:1013B0002E0000002E0001002D0000002D00000076
:1013C0002D0000002D0001002C0000002C0000006A
:1013D0002C0000002C0001002B0000002B0000005E
:1013E0002B0000002B0001002A0000002A00000052
:1013F0002A0000002A000100290000002900000046
:101400002900000029000000290001002800000038
:10141000280000002800000028000000280001002B
:101420002700000027000000270000002700000020
:101430002700010026000000260000002600000012
:101440002600000026000100250000002500000005
:1014500025000000250000002500000025000100F7
:1014600024000000240000002400000024000000EC
:1014700024000100230000002300000023000000DE
:1014800023000000230000002300000023000100CF
:1014900022000000220000002200000022000000C4
:1014A00022000000220001002100000021000000B5
:1014B00021000000210000002100000021000000A8
:1014C000210001002000000020000000200000009A
:1014D000200000002000000020000000200000008C
:1014E000200001001F0000001F0000001F0000007E
:1014F0001F0000001F0000001F0000001F0001006F
:101500001E0000001E0000001E0000001E00000063
:10151000043700001E290000511B00005810000075
:1015200010090000CC040000780200004101000016
:1015300070012C0190012701B0012201C0011D01A1
:10154000F00118011002130130020E0160020901BE
:1015500090020401C002FF000003FA004003F500FE
:101560008003F000D003EB002004E6007004E100EB
:10157000E004DC004005D700C005D2004006CD00E5
:10158000D006C8008007C3003008BE00F008B900CC
:10159000C009B400B00AAF00B00BAA00D00CA5007F
:1015A000000EA000500F9B00C0109600501291003A
:1015B00000148C00C0158700B0178200B0197D00A0
:1015C000D01B7800001E730040206E00902269003E
:1015D000F024640040275F0090295A00E02B55005A
:1015E000102E500020304B0010324600E0334100F6
:1015F00090353C001037370070383200A0392D008C
:10160000B03A2800A03B2300603C1E00103D1900AA
:10161000903D1400103E0F00703E0A00C03E0500D1
:10162000003F0000403FFBFF803FF6FFC03FF1FF5F
:10163000FFFFFF0000000000000000000000001895
:101640000213020C020502F70100004842000048A4
:101650004200008040DB0FC93F45BCDA3F8FB30238
:1016600040FCF0274056946140FE4B9B4084A5D837
:1016700040E0231841346A5641E859974164DBD56C
:10168000416E271742B4B75542CE1A9742C8AED51D
:1016900042B5885A43D40684BFA65FA7BF7443E00F
:1016A000BF10B11AC01C2C58C0E8F697C0B849D674
:1016B000C04E4E17C124D355C1802497C1A0B5D5C3
:1016C000C1121A17C244AE55C2781797C26CACD576
:1016D000C267885AC300002200250028002B002E74
:1016E000003100340002010000050108010B010572
:1016F000050505070508080808020202020A0A088B
:1017000008040404040101010101010101030303B0
:101710000303030303040707070C0C0C0C0C0C0C4D
:101720000C0202020206060606060606060B0B0B54
:101730000B0B0B0B0B01021020200808102040108F
:101740002040800201020108040201010204081085
:1017500020408080402010080402018004020180A3
:1017600040201008040201080402010102040810CC
:10177000204080010204081020408000000A0B0273
:10178000090C0D0E08070304010000000000000012
:101790000000000000000000000000000000000049
:1017A0000000000000000012111000000000000006
:1017B0000000000000000000000000000000000029
:1017C0000000695A11241FBECFEFD1E2DEBFCDBFAA
:1017D00000E00CBF12E0A0E0B2E0E6E1F3ED00E0D3
:1017E0000BBF02C007900D92A435B107D9F72BE0CB
:1017F000A4E5B2E001C01D92A938B207E1F71BE0F1
:10180000C2EEDBE000E006C021970109802FFE0157
:101810000E944466C13ED10780E00807A9F70E94F4
:101820009C5A0C9489690C940000382FE4E8F7E185
:101830008491EEE3F7E12491E8EFF6E194919923A6
:1018400009F435C0882311F181508231F8F4E82F72
:10185000F0E08827E15DF34F8F4F0C944466600CF5
:10186000640C410C580C5C0C460C670C6D0C710C34
:10187000770C7B0C7F0C850C890C460C8D0C930C23
:10188000970C809180008F7780938000E92FF0E0A3
:10189000EE0FFF1FEB52F94EA591B4918FB7F8945C
:1018A000EC91311148C020952E232C938FBF0895C1
:1018B000809180008F7DE8CF80918000877FE4CF8A
:1018C00084B58F7784BDE2CF84B58F7DFBCF8091C7
:1018D000B0008F778093B000D9CF8091B0008F7D1A
:1018E000F9CF809190008F7780939000CFCF809137
:1018F00090008F7DF9CF80919000877FF5CF809108
:10190000A0008F778093A000C1CF8091A0008F7D31
:10191000F9CF8091A000877FF5CF809120018F774C
:1019200080932001B3CF809120018F7DF9CF8091EA
:101930002001877FF5CF2E2BB8CF3FB7F894809149
:10194000C3059091C405A091C505B091C60526B503
:10195000A89B05C02F3F19F00196A11DB11D3FBFE7
:10196000BA2FA92F982F8827BC01CD01620F711DB6
:10197000811D911D42E0660F771F881F991F4A95B0
:10198000D1F708958F929F92AF92BF92CF92DF923C
:10199000EF92FF926B017C010E949D0C4B015C0158
:1019A000C114D104E104F104B9F00E949D0C68193E
:1019B00079098A099B09683E73408105910580F386
:1019C00021E0C21AD108E108F10888EE880E83E010
:1019D000981EA11CB11CE4CFFF90EF90DF90CF9038
:1019E000BF90AF909F908F9008952FB7F89460911B
:1019F000BF057091C0058091C1059091C2052FBFB0
:101A00000895CF93DF93C0914E0BD0914F0B209749
:101A100029F160914A0B70914B0B80914C0B909186
:101A20004D0B0E94CB676E5F7F4F24976C177D072D
:101A3000ACF47093410B6093400B0E94F50C605E18
:101A4000714B8F4F9F4F6093420B7093430B80936A
:101A5000440B9093450BDF91CF9108951092420B68
:101A60001092430B1092440B1092450BF4CF10923E
:101A7000EA058091190290911A020F97181619061B
:101A800014F490E080E090934F0B80934E0B0E94F3
:101A9000010D1092500B2C980895BC012091C103A8
:101AA0003091C2034091C1035091C20324173507FE
:101AB00031F481E02617370709F080E008959A0194
:101AC000F1CF8091F80380FF27C089988FEF809332
:101AD00077038091F803869580FF21C08F9A8FEF5E
:101AE000809378038091F8038695869580FF1AC0CD
:101AF00080910B018270809309018FEF80937903AD
:101B00008091F80386958695869580FF13C0169878
:101B10008FEF80937A030895899A81E0D8CF8F98C8
:101B200081E0DECF80910B01809582708093090166
:101B300081E0E4CF169A81E0ECCF20911902309138
:101B40001A022F503109821793070CF49C0130932D
:101B50004F0B20934E0B0C94010DAF92BF92CF927E
:101B6000DF92EF92FF920F931F93CF93DF93C0EF1B
:101B7000DAE008E316E080E0A82E8BE0B82EC12C56
:101B8000D12C7601C39469917991899199910E94A0
:101B9000FD61288939894A895B890E945E620E94B9
:101BA000D267F80161937193819391938F01C61667
:101BB000D706E806F90610F46B017C01AC16BD06E9
:101BC00011F76FEF7FEFCB01A70196010E94D5655A
:101BD000209348063093490640934A0650934B069B
:101BE000DF91CF911F910F91FF90EF90DF90CF90F9
:101BF000BF90AF900895CF92DF92EF92FF928091C5
:101C0000DD05882309F457C0C090D905D090DA05C6
:101C1000E090DB05F090DC0520E030E0A901C70191
:101C2000B6010E94F861882309F445C020E030E045
:101C300040E05FE3C701B6010E945E629B01AC0118
:101C40000E945E622BED3FE049E450E40E945E6238
:101C50009B01AC0160E070E080E89FE30E9459675F
:101C60006B017C01C092C905D092CA05E092CB05F8
:101C7000F092CC0560911B0270911C02072E000CA3
:101C8000880B990B0E94FF612AE037ED43E25CE389
:101C90000E945E62A70196010E945E626093430209
:101CA000709344028093450290934602FF90EF9018
:101CB000DF90CF900895C12CD12C80E8E82E8FE3DF
:101CC000F82ED0CF8091690B90916A0B891B8F7091
:101CD00019F490E080E008959091660B992351F0FB
:101CE000833030F48FEF890F19F08093660BF1CFBA
:101CF0001092660B80916A0B27E4829FC001112429
:101D0000815A994FFC01208120FDE3CF20916A0B7D
:101D10002F5F2F702093670B30916A0B2091680B17
:101D2000321304C02091670B2093680B08959091A3
:101D30006F0081E091FD02C080E0089590916F00F6
:101D40009D7F90936F000895EFE6F0E080818260C0
:101D500080830895CF93C82F0E94970E94E0C99F67
:101D600090011124F901EC53FC4F20533C4FD90151
:101D70004D915D916D917C9140835183628373831A
:101D800091E09093C303882319F0CF910C94A40E93
:101D9000CF910895CF92DF92EF92FF92CF93DF938E
:101DA000C82F0E94970E94E0C99FE0011124FE0104
:101DB000E053FC4FC080D180E280F38081110E940B
:101DC000A40EC25BD94FC701B6010E94FF612881F2
:101DD00039814A815B810E945E62DF91CF91FF90E1
:101DE000EF90DF90CF900895CF92DF92EF92FF9225
:101DF000CF93DF93C82F0E94970E94E0C99FE00114
:101E00001124FE01EC53FC4FC080D180E280F380AE
:101E100081110E94A40EC25BD94FC701B6010E9476
:101E2000FF61288139814A815B810E945E62DF9176
:101E3000CF91FF90EF90DF90CF900895CF93DF93F5
:101E400024E0829FC0011124EC01CC51D54FFC014C
:101E5000E353FA4F8C509A4FDC012D913D914D91F7
:101E60005C9160817181828193810E945F66688349
:101E700079838A839B83DF91CF910895CF92DF92FC
:101E8000EF92FF921F93CF93DF932091230222239F
:101E900009F48DC0EC011091080610FF2CC0C09011
:101EA0002502D0902602E0902702F0902802288197
:101EB00039814A815B81C701B6010E94BF6818164B
:101EC00024F4C882D982EA82FB82C0903102D09089
:101ED0003202E0903302F0903402288139814A8145
:101EE0005B81C701B6010E94F86187FF04C0C88208
:101EF000D982EA82FB8211FF2CC0C0902902D090C7
:101F00002A02E0902B02F0902C022C813D814E8120
:101F10005F81C701B6010E94BF68181624F4CC8205
:101F2000DD82EE82FF82C0903502D0903602E090D2
:101F30003702F09038022C813D814E815F81C701CC
:101F4000B6010E94F86187FF04C0CC82DD82EE8278
:101F5000FF8212FF2CC0C0902D02D0902E02E09084
:101F60002F02F0903002288539854A855B85C701AC
:101F7000B6010E94BF68181624F4C886D986EA867E
:101F8000FB86C0903902D0903A02E0903B02F0907C
:101F90003C02288539854A855B85C701B6010E94C8
:101FA000F86187FF04C0C886D986EA86FB86DF9180
:101FB000CF911F91FF90EF90DF90CF900895CF9237
:101FC000DF92EF92FF9280917603659B62C0816001
:101FD00080937603909103018091760391FF5BC01B
:101FE000826080937603809176034B9B56C0846019
:101FF00080937603C090B403C0FE10C08091F803B4
:1020000080FF0CC08091760380FF08C08091BD05E1
:1020100081608093BD0580E00E94AA0ED12CF12C36
:10202000E12CD701C601B695A7959795879580FFB6
:1020300011C08091F803869580FF0CC080917603D3
:1020400081FF08C08091BD0582608093BD0581E05D
:102050000E94AA0E82E0F694E794D794C7948A95DA
:10206000D1F7C0FE1CC08091F8038695869580FF4D
:1020700016C08091760382FF12C08091BD058460F6
:102080008093BD0582E0FF90EF90DF90CF900C949D
:10209000AA0E8E7F9DCF8D7FA4CF8B7FA9CFFF907F
:1020A000EF90DF90CF9008950F931F938091EF05ED
:1020B000813019F50E94F50C0091720310917303A1
:1020C0002091740330917503601B710B820B930B8D
:1020D00028EE33E040E050E00E94D56560916E0349
:1020E00070916F038091700390917103620F731F61
:1020F000841F951F1F910F9108956091EB057091BA
:10210000EC058091ED059091EE05D6CF1092EF058C
:10211000109272031092730310927403109275035D
:102120001092EB051092EC051092ED051092EE0561
:1021300010926E0310926F0310927003109271034D
:1021400008958091EF058130F1F08230C9F40E944A
:10215000541060936E0370936F0380937003909399
:10216000710381E08093EF050E94F50C6093720388
:1021700070937303809374039093750381E00895C3
:102180000E948610EECF80E008958091EF05815087
:10219000823070F41092EF050E94F50C6093EB050D
:1021A0007093EC058093ED059093EE0581E0089522
:1021B00080E00895282F90911F06833021F495FD2B
:1021C0000FC094FD0FC0892F90E0B0E0A0E004C0E4
:1021D000B695A795979587952A95D2F7817008951A
:1021E00081E0089580E008952FEB280F2A3108F050
:1021F00047C0E22FF0E08091F0059091F105A091A9
:10220000F205B091F30504C0B695A795979587950B
:102210002A95D2F780FD02C081700895EE52FD4FDD
:10222000E081EE2341F18091D20A9091D30AE80F28
:10223000F92FF11D808190ED980F9A3030F08E3299
:1022400051F4818180538A3098F4F0930A06E09328
:10225000090681E008958D3211F08B3249F48181B5
:1022600090ED980F9A3088F38E3211F48281EACF84
:10227000F0E0E0E0EACF10920A0610920906E9CFFA
:1022800080E008950E94F410882341F081E02091BD
:10229000090630910A06232B09F480E00895129A6A
:1022A00008955F9A8091E4058E7F8093E4058A9A71
:1022B0008091E4058D7F8093E405809108018095ED
:1022C0008170809306018091E4058B7F8093E40503
:1022D0000C944F119091C00095FFFCCF8093C600E5
:1022E0000895CF93DF93EC01FE018491219688231A
:1022F00019F00E946A11F8CFDF91CF910895CF9322
:10230000C82FCB010E94711188E89CE00E947111D6
:1023100080ED93E0CC2311F085ED93E00E947111E4
:102320008AE0CF910C946A1181EF93E00E947111C1
:102330008CB16BEE73E085FB882780F90E947F11DA
:102340008091030165EE73E0869581700E947F1194
:1023500089B16FED73E083FB882780F90C947F11BE
:102360000F931F93CF93DF938B010E947111E801AC
:102370008991882319F00E946A11FACFDF91CF91D9
:102380001F910F91089588EA93E00C947111C82F62
:102390000E94370D0E94C3118BE89CE00E947111CE
:1023A00089EE93E030E6019729F0232F2A9500006B
:1023B000E9F7F9CFF89489EE93E038EE019729F028
:1023C000232F2A950000E9F7F9CF0E94370DCC237F
:1023D00021F00E945111A895FECF0E944F11FBCF12
:1023E00082EA93E00C9471110E94F0116091D20A7C
:1023F0007091D30A8EE39CE00E94B0118BE39CE0C5
:102400000C9471110F931F93CF938C01C62F0E94D0
:10241000F01189ED95E00E947111C8010E947111BF
:10242000CC2331F08AE0CF911F910F910C946A1167
:10243000CF911F910F9108958091EC029091ED0240
:102440002FEF3FEF981751F0E92FF0E0E451FD4FE7
:10245000228130E09F5F9F779093ED02C90108953C
:102460008F929F92AF92BF92CF92DF92EF92FF92A4
:102470000F931F93CF93DF93B0E4A0E06A2F70E037
:10248000AB014B0F511D55954795411119C0E2E322
:10249000F5E165917491072E000C880B990B0E9451
:1024A000FF61DF91CF911F910F91FF90EF90DF902F
:1024B000CF90BF90AF909F908F900895B42FE0CFB2
:1024C0004A1711F0B41303C0EEE2F6E1E2CF9A012D
:1024D00021503109220F331F220F331FF901E05D14
:1024E000FA4EE590F490F901EC5CFA4EC591D49166
:1024F0008E159F051CF3A42FC817D9070CF4BECF67
:10250000F901EE5CFA4E05911491F901EA5CFA4E7C
:10251000C590D490BC016E197F09072E000C880B62
:10252000990B0E94FF614B015C01B601601B710BAE
:10253000072E000C880B990B0E94FF619B01AC01D8
:10254000C501B4010E945E624B015C01BE016E19BF
:102550007F09072E000C880B990B0E94FF619B01DD
:10256000AC01C501B4010E9459676B017C01B8013F
:10257000110F880B990B0E94FF619B01AC01C701F1
:10258000B6010E945F668DCFCF93DF93C6E4DBE098
:102590008A819B810E9430126C837D838E839F830E
:1025A000A8951092C805DF91CF910895CF92DF9240
:1025B000EF92FF920F931F93CF93DF93CDB7DEB7C8
:1025C000A0970FB6F894DEBF0FBECDBF61157105A1
:1025D0008105910579F100E0C42ED12CF12CE12C7C
:1025E000A70196010E94D56511E0100FE1E0F0E02F
:1025F000EC0FFD1FE00FF11D07FDFA956083B90197
:10260000CA01012F611571058105910549F7115026
:1026100010F1E1E0F0E0EC0FFD1FE10FF11D17FDFF
:10262000FA95908187E39A3008F480E3890F0E943D
:102630006A11EDCF80E3A0960FB6F894DEBF0FBE0F
:10264000CDBFDF91CF911F910F91FF90EF90DF9061
:10265000CF900C946A11A0960FB6F894DEBF0FBE0F
:10266000CDBFDF91CF911F910F91FF90EF90DF9041
:10267000CF900895CF92DF92EF92FF926B017C0191
:10268000F7FE0BC08DE20E946A11F094E094D094A2
:10269000C094C11CD11CE11CF11C4AE0C701B60169
:1026A000FF90EF90DF90CF900C94D612CF93DF93F2
:1026B000EB010E947111BE01DD0F880B990BDF91B8
:1026C000CF910C943A13CF93DF93EC0180913F0BA1
:1026D000813089F40E94C311CE010E9471118DE6F0
:1026E0009CE00E94711160E070E0CB010E943A13FF
:1026F0008AE00E946A110E94370D80913E0B811181
:1027000009C081E080933E0B80E880933F0B80E01E
:102710000E94C711DF91CF9108952F923F924F925F
:102720005F926F927F928F929F92AF92BF92CF9261
:10273000DF92EF92FF920F931F93CF93DF93CDB76A
:10274000DEB72F970FB6F894DEBF0FBECDBF8091D6
:10275000C805811119C02F960FB6F894DEBF0FBEC1
:10276000CDBFDF91CF911F910F91FF90EF90DF9040
:10277000CF90BF90AF909F908F907F906F905F9021
:102780004F903F902F9008950E94C4120E94F50C24
:102790002B013C016091190270911A02072E000C66
:1027A000880B990B0E94FF614B015C01AC019B01FE
:1027B00060914A0B70914B0B80914C0B90914D0B9B
:1027C0000E94BF6818160CF4EAC160914E0B70911C
:1027D0004F0B072E000C880B990B0E94FF616B01B9
:1027E0007C012091620B3091630B4091640B5091FE
:1027F000650B0E94F861811175C02091610B2983DE
:102800005981523009F48CC1533009F4C1C151309F
:1028100009F4CCC1C0904A0BD0904B0BE0904C0B0C
:10282000F0904D0B6091170270911802072E000C6A
:10283000880B990B0E94FF61A70196010E94F86125
:1028400087FF09C0A7019601C501B4010E94BF68B6
:1028500018160CF45FC060E06093500B8091420B3F
:102860009091430BA091440BB091450B0097A105AB
:10287000B10509F470CFA3019201281B390B4A0B53
:102880005B0BDA01C901B7FD66CF6091400B709117
:10289000410B90E080E00E94FD61A70196010E943B
:1028A000BF6818160CF0AFC16DE078E08CE198E0DD
:1028B0002F960FB6F894DEBF0FBECDBFDF91CF913C
:1028C0001F910F91FF90EF90DF90CF90BF90AF904E
:1028D0009F908F907F906F905F904F903F902F9040
:1028E0000C946313C092620BD092630BE092640B62
:1028F000F092650B31E0398320E030E0A901C70197
:10290000B6010E94BF6818160CF0198249814093E5
:10291000610B76CF60914E0B70914F0B6115710575
:1029200009F4A0C1072E000C880B990B0E94FF61CF
:10293000A70196010E945E664B015C0120E030E039
:1029400040E251EC0E94F86187FD8CC120E030E04C
:1029500040E251E4C501B4010E94BF6818160CF4AE
:1029600095C18091F403811196C18091EC039091FF
:10297000ED03A091EE03B091EF0389839A83AB83BB
:10298000BC832091F0033091F1034091F203509108
:10299000F3032D833E834F835887A70196016091EF
:1029A000E0037091E1038091E2039091E3030E94C0
:1029B0005E662091590B30915A0B40915B0B509100
:1029C0005C0B0E945E6229813A814B815C810E948E
:1029D0005E6620ED3CEC4CE45DE30E945E62298182
:1029E0003A814B815C810E945F6669837A838B8325
:1029F0009C836093EC037093ED038093EE039093BC
:102A0000EF038091550B9091560BA091570BB0910D
:102A1000580B89879A87AB87BC872D813E814F8170
:102A20005885C501B4010E945F668B018F879E8720
:102A300020E030E0A9010E94F86187FD37C12985B7
:102A40003A854B855C8560E070E08FE793E40E94F7
:102A500059676D837D871C0198014F855E850E94B3
:102A6000F86187FF04C00D811D852F863E86C80151
:102A7000AF85BE858093F0039093F103A093F2039A
:102A8000B093F3032091510B3091520B4091530BB3
:102A90005091540BC501B4010E945E624B015C0170
:102AA0008092E4039092E503A092E603B092E703DC
:102AB00098014F855E8569857A858B859C850E9406
:102AC0005E629B01AC012093E8033093E9034093DD
:102AD000EA035093EB03C501B4010E945F662981AC
:102AE0003A814B815C810E945F6620E030E0A90161
:102AF0000E945F664B015C0120E030E0A9010E946A
:102B0000F86187FDB2C020E030E04FE753E4C50133
:102B1000B4010E94BF6818160CF0B1C06FE7A6C0E0
:102B2000C0904A0BD0904B0BE0904C0BF0904D0BAB
:102B30008091620B9091630BA091640BB091650B37
:102B400089839A83AB83BC8320E030E040E850E483
:102B500069817A818B819C810E945E66A7019601C2
:102B60000E94F86118160CF03FC00E94F50CC0904E
:102B70005D0BD0905E0BE0905F0BF090600B6C19DA
:102B80007D098E099F0997FD45CE83E08093610BF7
:102B90006DEE77E08DEF97E00E9463133BCE66EE1B
:102BA00075E083EF95E00E9463130FCEC0904A0B4F
:102BB000D0904B0BE0904C0BF0904D0B2091620BA2
:102BC0003091630B4091640B5091650B29833A83DC
:102BD0004B835C83C701B6010E94F86187FD22CE5A
:102BE00082E08093610BB0CF0E94F50C605C73466D
:102BF0008F4F9F4F60935D0B70935E0B80935F0BC5
:102C00009093600B07CEA0904E0BB0904F0BA11489
:102C1000B104F9F0C701B6010E94CB676E5F7F4F28
:102C200034E0A31AB1086A157B059CF47093410B3C
:102C30006093400B0E94F50C605E714B8F4F9F4F6D
:102C40006093420B7093430B8093440B9093450B1E
:102C500082CD1092420B1092430B1092440B1092B3
:102C6000450B79CD81E08093F40360E0C092E003EE
:102C7000D092E103E092E203F092E303EDCDC501CF
:102C8000B4010E94CB6775956795F0CF81E0809382
:102C9000F4036FE7EBCF1092F4031D821E821F82B4
:102CA000188619821A821B821C8277CE00E010E0FF
:102CB0001F861E86DCCECF92DF92EF92FF926B01D1
:102CC0007C0183E3C816D104E104F10470F082E3CF
:102CD000C81AD108E108F10862E370E080E090E0F2
:102CE0000E94C20C0E948D13ECCFC701B6010E9456
:102CF000C20CFF90EF90DF90CF900C948D138091D9
:102D00000006882331F062E070E080E090E00C94EF
:102D10005B160895CF92DF92EF92FF92CF93DF93ED
:102D2000EC01C880D980EA80FB808CED95E00E94A0
:102D30007111C701B6010E943A13CC80DD80EE808C
:102D4000FF8089E59CE00E947111C701B6010E94D5
:102D50003A13C884D984EA84FB8485E59CE00E9408
:102D60007111C701B6010E943A138AE0DF91CF9139
:102D7000FF90EF90DF90CF900C946A118F929F920A
:102D8000AF92BF92CF92DF92EF92FF92CF936B01FF
:102D90007C01B42E20E030E0A9010E94F86187FF99
:102DA00007C08DE20E946A11F7FAF094F7F8F094E8
:102DB000C0E060E070E080E09FE3CB1541F02DECD7
:102DC0003CEC4CEC5DE30E945E62CF5FF6CF9B0172
:102DD000AC01C701B6010E945F666B017C010E94D5
:102DE000D2674B015C014AE00E94D612CC2391F1DC
:102DF000C501B4010E94FD619B01AC01C701B60190
:102E00000E945E666B017C018EE20E946A11C150D5
:102E100008F120E030E040E251E4C701B6010E9431
:102E20005E624B015C010E94CB676B01770FEE087D
:102E3000FF08C701B6010E943A13C701B6010E94FC
:102E4000FF619B01AC01C501B4010E945E666B018C
:102E50007C01DDCFCF91FF90EF90DF90CF90BF90BE
:102E6000AF909F908F900895CF92DF92EF92FF9254
:102E70006A017B010E94711142E0C701B601FF9017
:102E8000EF90DF90CF900C94BE168823A9F10E949A
:102E9000F0114091040B5091050B6091060B70915D
:102EA000070B86E69CE00E9434174091080B509176
:102EB000090B60910A0B70910B0B83E69CE00E945A
:102EC000341740910C0B50910D0B60910E0B7091CB
:102ED0000F0B80E69CE00E9434174091100B50913C
:102EE000110B6091120B7091130B8DE59CE00E9409
:102EF00034178AE00C946A1180E20E946A11C9CFEB
:102F00004F925F926F927F928F929F92AF92BF92F9
:102F1000CF92DF92EF92FF920F931F93CF93DF93A5
:102F2000C4EDDAE04C845D846E847F8404EE1AE0A4
:102F3000F80124813581468157816C817D818E81A4
:102F40009F810E945F664B015C01F80120853185FD
:102F500042855385688579858A859B850E945F6651
:102F60006B017C01F80120813181428153816881AC
:102F700079818A819B810E945F66AB01BC0183EEEF
:102F800095E00E943417B501A40189E59CE00E94F8
:102F90003417B701A60185E59CE00E943417B30100
:102FA000A20181E59CE0DF91CF911F910F91FF90ED
:102FB000EF90DF90CF90BF90AF909F908F907F90D9
:102FC0006F905F904F900C943417CF93DF93CDB7F1
:102FD000DEB72C970FB6F894DEBF0FBECDBF0E94B0
:102FE00080170E94970E9CE0E0EDF3E0DE01119661
:102FF00001900D929A95E1F781110E94A40ECE01E5
:1030000001960E948A162C960FB6F894DEBF0FBE6A
:10301000CDBFDF91CF9108958F929F92AF92BF92D3
:10302000CF92DF92EF92FF920F931F93CF93C82F0F
:1030300006E41BE0F80160857185072E000C880B03
:10304000990B0E94FF616B017C01F80184809580DF
:10305000A680B78080E20E946A1184E50E946A110E
:103060008AE30E946A1142E0C501B4010E94BE16C3
:10307000B701A60184E296E00E94341762E070E096
:1030800080E090E00E94C20C87E1C802F0011124A8
:10309000EA5BF44F628570E087E296E0CF911F9182
:1030A0000F91FF90EF90DF90CF90BF90AF909F90E7
:1030B0008F900C9456131F93CF93DF93C82F11E07A
:1030C0001827811102C00E94F01182EC95E00E9445
:1030D00071118CEB95E00E9471118AE00E946A11D7
:1030E0008AE00E946A11D091DD05C1110DC060E037
:1030F00089EA95E00E940212DD2309F48FC18AE07B
:103100000E946A110E94F0116D2F70E085E995E030
:103110000E9456134091D9055091DA056091DB0564
:103120007091DC0580E594E00E9434178AE00E94EB
:103130006A11C11105C061E085E895E00E940212A4
:10314000812F0E944517C11107C061E088E695E014
:103150000E9402120E94F0114091140B5091150B25
:103160006091160B7091170B8FE595E00E94341754
:103170004091180B5091190B60911A0B70911B0B19
:1031800083E69CE00E94341740911C0B50911D0B6C
:1031900060911E0B70911F0B80E69CE00E9434171B
:1031A0004091200B5091210B6091220B7091230BC9
:1031B0008DE59CE00E9434178AE00E946A11C111DB
:1031C00007C061E08EE395E00E9402120E94F011B8
:1031D0006091F00A7091F10A8091F20A9091F30ADD
:1031E0000E94FD61AB01BC0185E395E00E943417AC
:1031F0006091F40A7091F50A8091F60A9091F70AAD
:103200000E94FD61AB01BC0183E69CE00E94341783
:103210006091F80A7091F90A8091FA0A9091FB0A7C
:103220000E94FD61AB01BC0180E69CE00E94341766
:103230006091FC0A7091FD0A8091FE0A9091FF0A4C
:103240000E94FD61AB01BC018DE59CE00E9434173A
:103250008AE00E946A11C11107C061E08CEE94E01F
:103260000E9402120E94F0114091240B5091250BF4
:103270006091260B7091270B83EE94E00E94341727
:103280004091280B5091290B60912A0B70912B0BC8
:1032900085E799E00E94341740912C0B50912D0B3B
:1032A00060912E0B70912F0B82E799E00E943417EA
:1032B0008AE00E946A11C11107C061E08FE894E0C2
:1032C0000E9402120E94F0116091000B7091010B9C
:1032D0008091020B9091030B0E94FD61AB01BC0138
:1032E00086E894E00E9434174091300B5091310BE6
:1032F0006091320B7091330B8BE995E00E9434178B
:103300004091340B5091350B6091360B7091370B17
:1033100082E799E00E9434174091240650912506D7
:10332000609126067091270683E894E00E94341786
:103330008AE00E946A11C11107C061E086E794E04B
:103340000E9402120E94F0114091CD055091CE05CD
:103350006091CF057091D0058DE694E00E943417FE
:103360004091D1055091D2056091D3057091D4055B
:1033700083E69CE00E9434174091D5055091D60514
:103380006091D7057091D80580E69CE00E943417C3
:103390008AE00E946A11C11107C061E08FE594E0E4
:1033A0000E9402120E94F0114091510B5091520B59
:1033B0006091530B7091540B86E594E00E94341792
:1033C0002CEA35EC47E25EE36091550B7091560BA9
:1033D0008091570B9091580B0E945967AB01BC012B
:1033E00083E594E00E9434172CEA35EC47E25EE373
:1033F0006091590B70915A0B80915B0B90915C0B13
:103400000E945E62AB01BC0180E594E00E9434172B
:103410008AE0DF91CF911F910C946A118EE995E0BB
:103420000E9471116FCE8DE00E946A118AE00C94A7
:103430006A118091EC028093ED0287EC93E00E9488
:10344000711160913A0B70913B0B80913C0B909104
:103450003D0B6F5F7F4F8F4F9F4F0E943A130E942B
:10346000131AE091C705F0E0E158F44F80818823FA
:1034700039F081E197E00E9471118AE00C946A11A1
:103480000895CF93DF93EC010E94C311CE010E94F7
:10349000711160913A0B70913B0B80913C0B9091B4
:1034A0003D0B0E943A130E94131A0E941C120196AF
:1034B000E1F70E94191A1092390B1092380BDF9124
:1034C000CF9108950F931F93CF938C01C62F82EC59
:1034D00093E00E947111C8010E9471118AE30E9459
:1034E0006A116C2F70E090E080E00E943A13CF9157
:1034F0001F910F910C94131ACF93DF93EC018991D4
:10350000882319F00E946A11FACFDF91CF910C94B1
:10351000131A4F925F926F927F928F929F92AF9207
:10352000BF92CF92DF92EF92FF920F931F93CF93B0
:10353000DF93CDB7DEB76A970FB6F894DEBF0FBE44
:10354000CDBF9A8F898F5B018A01DC01D6966D9180
:103550007D918D919C91D9970E94FD616B017C01B9
:10356000F50120813181428153810E945E620E9477
:103570003D672B013C01D8012D913D914D915C910E
:10358000C701B6010E945E620E943D674B015C016B
:10359000C301B2010E94D267698B7A8B8B8B9C8BA3
:1035A000683771058105910540F428E730E040E077
:1035B00050E0298B3A8B4B8B5C8BC501B4010E9488
:1035C000D2676D877E878F87988B683771058105F5
:1035D000910540F488E790E0A0E0B0E08D879E87F9
:1035E000AF87B88BE98DFA8DEE5BFF4F208131817B
:1035F0004281538129833A834B835C83CA01B90199
:103600000E94FF612B013C0169897A898B899C8921
:103610000E94FD6169877A878B879C8720E030E074
:10362000A901C301B2010E94F861882309F43BC1DA
:10363000A7019601C701B6010E945E624B015C01C1
:1036400029853A854B855C85CA01B9010E945E6275
:103650009B01AC01C501B4010E945E664B015C0197
:10366000A3019201C301B2010E945F669B01AC01FC
:10367000C501B4010E9459670E943D670E94D2674C
:103680006D837E838F83988769817A818B819C810A
:1036900090958095709561957F4F8F4F9F4F0E94B9
:1036A000FF614B015C016D857E858F8598890E9445
:1036B000FD6169837A838B839C8320E030E0A901DC
:1036C000C501B4010E94F861882309F4F0C0298182
:1036D0003A814B815C81CA01B9010E945E626D8BA7
:1036E0007E8B8F8B988FA7019601C701B6010E9430
:1036F0005E629B01AC016D897E898F89988D0E94E5
:103700005E666B017C01A5019401C501B4010E94B4
:103710005F669B01AC01C701B6010E9459670E9418
:103720000168A98DBA8D95968D909D90AD90BC90B5
:103730009897750164012D813E814F815885C21A89
:10374000D30AE40AF50A0E94D267C61AD70AE80A21
:10375000F90AF7FE6EC020E030E0A901C301B20112
:103760000E94F861882309F4A6C0C501B4010E9433
:10377000FD616B017C01A3019201C301B2010E94B2
:103780005F669B01AC01C701B6010E945E626B01DE
:103790007C0129853A854B855C85CA01B9010E9467
:1037A0005E629B01AC01C701B6010E945E666B01BF
:1037B0007C0129813A814B815C81CA01B9010E9457
:1037C0005E629B01AC01C701B6010E945F666B019E
:1037D0007C0120E030E040E850E4C301B2010E94E7
:1037E0005E629B01AC01C701B6010E9459670E944D
:1037F0003D676B017C0120E030E0A9010E94BF68B9
:1038000018161CF0C12CD12C7601C701B6010E94FC
:10381000D2676D837E838F83988786169706A80666
:10382000B90620F48D829E82AF82B886C12CD12C3D
:1038300076018D819E81AF81B885E98DFA8D81A752
:1038400092A7A3A7B4A7C80ED91EEA1EFB1EC5A641
:10385000D6A6E7A6F0AA29893A894B895C8922AFC6
:1038600033AF44AF55AFFE962D853E854F855889C1
:1038700020833183428353836A960FB6F894DEBF68
:103880000FBECDBFDF91CF911F910F91FF90EF90B1
:10389000DF90CF90BF90AF909F908F907F906F9070
:1038A0005F904F90089560E070E0CB01E5CE60E05E
:1038B00070E0CB0134CF60E070E0CB0198CF4F9245
:1038C0005F926F927F92AF92BF92CF92DF92EF9210
:1038D000FF920F931F93CF93DF931092DF05109207
:1038E000DE052FE320932206109221061092200677
:1038F0001092F0051092F1051092F2051092F30566
:103900009C01E90198812F5F3F4F9032D1F39E34A3
:10391000C9F4898190ED980F9A3020F08D3211F022
:103920008B3281F422969E012F5F3F4F8881805316
:103930008A3008F46FC09E012F5F3F4F888180322C
:1039400009F46AC0D093D30AC093D20A7E012FEF44
:10395000E21AF20A18816AE270E0C7010E946C69FB
:10396000009731F0FC01319780818032E1F31182C0
:103970001D3421F0143511F01734E9F5F701808179
:103980009FEFE91AF90A8032C9F380538A3098F51B
:103990001093220690E080E06AE0AF014F5F5F4F36
:1039A000689F9001699F300D11248081F901E80F13
:1039B000F11D87FDFA95CF01C097FA0120812053B0
:1039C0002A3058F39093210680932006DF01319628
:1039D0002C912032D9F31D3459F58E31910539F0EF
:1039E000ECF48731910519F08C31910509F5B0930C
:1039F000DF05A093DE05DF91CF911F910F91FF901E
:103A0000EF90DF90CF90BF90AF907F906F905F90DE
:103A10004F900895E90187CFE9018DCF8537910552
:103A20003CF0873791051CF3803AF3E09F07F9F2E9
:103A300040E050E0BA0130E020E0C12CD12C76010A
:103A4000C394FD0131960C91002309F48CC001321E
:103A5000F1F41D34E1F480329105C9F44093F0058E
:103A60005093F1056093F2057093F305F093DF0531
:103A7000E093DE0563E270E0CF010E946C6900977D
:103A800009F4B9CFFC011082B6CFDF01DACF0154BF
:103A90000A3108F063C0DF01BD90D0E2AD2EBA1448
:103AA00099F0A0EDAB0DAA3008F1AEE2BA120EC04B
:103AB000A181A053AA30D0F02115310519F49F013E
:103AC00021503109B12C16C0FD01E5CFADE2AA2E7F
:103AD000BA1419F0ABE2BA12EFCFA181B0EDBA0F70
:103AE000BA3020F0AE3241F7A281E3CFBE2EBC1A2D
:103AF000309741F3A02FB0E02601370104C0440CF9
:103B0000551C661C771C0A95D2F74429552966294D
:103B10007729AE52BD4FBC92A081A154AA3108F4BE
:103B2000B4CFDF010191002309F48BCFD0EDBD2E7E
:103B3000B00ED9E0AD2EAB14A0F7D3EDBD2EB00E74
:103B4000AA24A394AB1468F70B3259F3FD01319604
:103B50000C91003209F075CFDF01F8CF2115310546
:103B6000D9F69D01D9CF3093DF052093DE05409330
:103B7000F0055093F1056093F2057093F3053BCF88
:103B80008091090690910A06009731F04AE050E0D2
:103B900070E060E00C944A5F60E070E0CB01089553
:103BA0000E94C01D97FD0CC00E94C01D6F3F710593
:103BB0008105910509F034F40E94C01D862F0895F7
:103BC00080E008958FEF08950E94421181110C94B6
:103BD000D01D80E00895CF9384E50E944211C0E09B
:103BE0008823F9F00E94D01DC82F1816D4F40E9423
:103BF000F0118DE40E946A116091200670912106F7
:103C0000072E000C880B990B0E943A136C2FCC0FD7
:103C1000770B8FEA93E00E9456138AE00E946A11A4
:103C2000CFEF8C2FCF9108958091090690910A06CD
:103C3000892B41F00E94D01D91E0811101C090E0DC
:103C4000892F089591E0FCCFCF93DF93C82FD62F13
:103C50000E944211882321F0DF91CF910C94141E11
:103C60008C2F0E94F410811101C08D2FDF91CF9114
:103C700008950F931F93CF938091090690910A06A0
:103C80000097E9F0FC018F01C1912C2F2F7D81F06D
:103C9000C53411F0C536B9F7F801108270E060E064
:103CA0000E94EC5DF801C083CF911F910F910895A0
:103CB00070E060E0CF911F910F910C94EC5D60E09B
:103CC00070E0CB01F1CFCF9383E50E9442118823AE
:103CD00051F00E94391E609308027093090280938C
:103CE0000A0290930B0282E40E944211882351F051
:103CF0000E94391E609304027093050280930602AD
:103D00009093070286E40E94F4108823B9F00E9481
:103D1000391E609300027093010280930202909317
:103D20000302C1E020E030E0A9010E94F8618111A6
:103D300001C0C0E0C093EA05CF91089560E070E053
:103D4000CB01E7CF8F929F92AF92BF92CF92DF923B
:103D5000EF92FF920F931F93CF938FE0E82E86E0B0
:103D6000F82E04ED1AE094EEC92E9AE0D92EC0E0A8
:103D700088E58C0F0E944211882309F47CC00E94C0
:103D8000391E4B015C018C2F0E94DA10882309F444
:103D900068C0F8012081318142815381C501B4019D
:103DA0000E945F66F7016083718382839383CF5F94
:103DB000F4E0EF0EF11C0C5F1F4F84E0C80ED11C25
:103DC000C330B1F685E40E944211882309F45EC035
:103DD0000E94391E6B017C0183E00E94DA10882367
:103DE00071F02091E00A3091E10A4091E20A50918D
:103DF000E30AC701B6010E945F666B017C01C092B5
:103E00001B06D0921C06E0921D06F0921E0686E468
:103E10000E9442118823C9F00E94391E20E030E040
:103E2000A9010E94BF68181684F40E94391E20E080
:103E300030E040E752E40E94596760933F0270937C
:103E400040028093410290934202CF911F910F91C3
:103E5000FF90EF90DF90CF90BF90AF909F908F90AA
:103E60000895F6012081318142815381C501B40159
:103E70000E945E6697CFF80180819181A281B38113
:103E8000F70180839183A283B38391CF8091E00A6D
:103E90009091E10AA091E20AB091E30A80931B0697
:103EA00090931C06A0931D06B0931E06B0CF2F92D0
:103EB0003F924F925F926F927F928F929F92AF92BA
:103EC000BF92CF92DF92EF92FF920F931F93CF9307
:103ED000DF9300D000D01F921F92CDB7DEB7809144
:103EE000BB05843008F06BC000E611E08091BB0593
:103EF000843008F064C08091EC029091ED02891B3F
:103F00008F7709F45CC00E941C1297FDEFCF8A30B6
:103F100019F08D3009F02BC11092C8028091380B36
:103F20009091390BFC01E859FD4F1082892B09F45F
:103F30007CC01092390B1092380B28E632E03F8398
:103F40002E83EE81FF818191803209F471C08E341D
:103F500009F0A7C06CE573E08E819F810E94AE617D
:103F60007C01892B49F06EE470E08E819F8104967C
:103F70000E946C69009711F48E819F814AE050E0A5
:103F800070E060E001960E944A5F4B015C01809105
:103F90003A0B90913B0BA0913C0BB0913D0B0196DD
:103FA000A11DB11D88169906AA06BB0609F443C0D7
:103FB000EF2809F040C089E293E00E94411A0E9474
:103FC000F50C6B017C018091E0059091E105A091D9
:103FD000E205B091E3050097A105B10509F404C11C
:103FE00040910B0650910C0660910D0670910E06E3
:103FF000840F951FA61FB71F97018601081B190B79
:104000002A0B3B0BD901C801B7FDEEC00E94C311BA
:104010006091D20A7091D30A8DE192E00E94B011B2
:104020008AE00E946A1180E06BC00E948D135ECF0F
:10403000FF83EE8386CF6AE270E08E819F810E94CB
:104040007E699C01009711F1982F4E81941BF12CF1
:10405000992341F09150EE81FF81E90FF11D80819C
:10406000F826F6CF4AE050E070E060E0C901019622
:104070000E944A5FCF2CD12CF12CE12C6C157D05D0
:104080008E059F0531F08AE093E097CF80EE92E0B5
:1040900094CF80923A0B90923B0BA0923C0BB09243
:1040A0003D0B80913F0B8130C1F067E470E08E8161
:1040B0009F810E946C69009781F04AE050E070E0B7
:1040C00060E001960E944A5F6430710581059105A8
:1040D00020F489E692E00E94711164E672E08E811C
:1040E0009F810E948D61892B11F4109222026FE54D
:1040F00072E08E819F810E948D61892B19F481E08D
:104100000E94C7116AE572E08E819F810E948D61D5
:10411000892B11F40E944F39809168028B3309F486
:10412000E5CE5091BB055A83543008F0DFCE809124
:1041300067028983809FC001112468E672E0855C74
:104140009B4F0E9477699981E92FF0E0E158F44F85
:1041500010839F5F9983943038F490936702EA81CB
:10416000EF5FE093BB05C2CE10926702F8CF90914B
:10417000C802913009F4BACE9430B0F094509093C4
:10418000C8028830C9F48091380B9091390B0097A0
:1041900009F4ACCE01979093390B8093380B885972
:1041A0009D4FFC011082A2CE8C35C9F49C5F909388
:1041B000C802943009F49ACE2091380B3091390B13
:1041C000A9014F5F5F4F5093390B4093380B28592B
:1041D0003D4FF90180834F3551051CF487CE8B3359
:1041E00081F61093C80282CE80901D0290901E022C
:1041F000A0901F02B090200281149104A104B10488
:1042000079F09091690B80916A0B981709F4DBC0E3
:10421000C0920B06D0920C06E0920D06F0920E06AC
:104220008091C9029091CA02A091CB02B091CC02B8
:10423000A7019601281B390B4A0B5B0BDA01C90158
:10424000B7FD3AC29091690B80916A0B40914D067F
:10425000981749F0E0916A0B37E4E39FF0011124CD
:10426000EB55F94F4081242F30E0EEE3F7E1549114
:10427000E8EFF6E18491882399F090E0880F991F88
:10428000FC01E555F34FA591B491FC01EB52F94EB9
:10429000859194918FB7F894EC91E52BEC938FBFB7
:1042A0004111CBC080E00E94150C8091EA05882363
:1042B00009F4F5C1209008023090090200910A0229
:1042C000088710910B021E8360914E0B70914F0B6B
:1042D0006E5F7F4F072E000C880B990B0E94FF61C9
:1042E0009101A8010E94F86187FDD9C100916A0B74
:1042F00009831A821B821C821D828091690B19819D
:10430000811709F45BC1812F90E027E4289FF00119
:10431000299FF00D1124E15AF94F45895689678983
:10432000708D452B462B472B81F4418D528D638D2B
:10433000748D452B462B472B41F4458D568D678D4B
:1043400070A1452B462B472BC9F137E4389F8001DC
:10435000399F100D1124015A194FF80161817281A2
:10436000838194810E940D694B015C01F80161A178
:1043700072A183A194A10E94FD612B013C01F8016F
:1043800065A176A187A190A50E94FD619B01AC016A
:10439000C301B2010E945967A50194010E945E62A7
:1043A0005B018C012A813B814C815D810E94BF6849
:1043B000181624F4AA82BB820C831D8389818F5F27
:1043C0008F7089839ACF0E94F50CAB01BC0180915C
:1043D0000B0690910C06A0910D06B0910E06880D6B
:1043E000991DAA1DBB1D481B590B6A0B7B0B77FF40
:1043F00003C01092CD0214CF8091CD02811110CF55
:1044000081E08093CD025F9A8091E4058E7F809356
:10441000E4058A9A8091E4058D7F8093E40580917C
:10442000080180958170809306018091E4058B7F5F
:104430008093E4050E944F11F3CE2F3F310511F414
:1044400081E031CFE4E8F7E1E491E150E23108F0B6
:10445000B0C0F0E08827E05DFD4D8F4F0C944466BE
:10446000422247224C2256226022D9226A227222FC
:104470007A2284228E229822A722B122D922BB221C
:10448000C522CF2284B5806884BD47BD0ECF84B5D8
:10449000806284BD48BD09CF809180008068809390
:1044A00080003093890020938800FFCE80918000A7
:1044B00080628093800030938B0020938A00F5CE39
:1044C0008091800088608093800030938D002093DD
:1044D0008C00EBCE8091B00080688093B000409358
:1044E000B300E3CE8091B00080628093B00040932F
:1044F000B400DBCE80919000806880939000309370
:10450000990020939800D1CE809190008062809392
:10451000900030939B0020939A00C7CE809190002A
:1045200088608093900030939D0020939C00BDCEC6
:104530008091A00080688093A0008091A0008F7B74
:104540008093A0003093A9002093A800AECE809164
:10455000A00080628093A0003093AB002093AA005B
:10456000A4CE8091A00088608093A0003093AD001D
:104570002093AC009ACE8091200180688093200126
:10458000309329012093280190CE809120018062F0
:104590008093200130932B0120932A0186CE8091B5
:1045A000200188608093200130932D0120932C01FD
:1045B0007CCE203831050CF043CF74CE2091000220
:1045C0003091010240910202509103026A817B8185
:1045D0008C819D810E945E62910148855E810E946E
:1045E0005F665B018C016090040270900502809010
:1045F0000602909007029B01AC01B10188859E8163
:104600000E94BF68181664F09301A401B501C801A7
:104610000E94BF6818160CF4DBC0150108871E83C2
:104620008090630290906402A0906502B090660250
:10463000910148855E81C501B4010E94BF681816CA
:10464000E4F420E037ED43EA5CE3B10188859E8124
:104650000E945E622B013C0128E431EE4AE75FE3F1
:10466000C501B4010E945E629B01AC01C301B201AD
:104670000E945F661B0188879E83C101A885BE8159
:104680008093630290936402A0936502B0936602E4
:10469000B101CD010E94CB67CB010E949D0DF4E6D4
:1046A000CF0ED11CE11CF11CC092C902D092CA02EB
:1046B000E092CB02F092CC020E948D1380913F0BCE
:1046C000882309F49DC00E94F50C6B017C010091C8
:1046D000210209830023F1F0809123068823D1F081
:1046E0004091CE025091CF026091D0027091D102E0
:1046F00097018601041B150B260B370BB901A80186
:1047000077FD1BC0833009F476C00CF065C08130A2
:104710000CF06AC01981212F30E0A8EEB3E00E94AE
:104720000266C60ED71EE81EF91EC092CE02D092B7
:10473000CF02E092D002F092D1020091E905098304
:10474000002309F45DC00E94F50C0091E50510916D
:10475000E6052091E7053091E805601B710B820B9F
:10476000930B97FD4DC00E94F50C6B017C011981E4
:10477000212F30E0A8EEB3E00E940266C60ED71EDD
:10478000E81EF91EC092E505D092E605E092E70525
:10479000F092E80580E00E940C188AE028960FB697
:1047A000F894DEBF0FBECDBFDF91CF911F910F9167
:1047B000FF90EF90DF90CF90BF90AF909F908F9041
:1047C0007F906F905F904F903F902F900C946A1164
:1047D000130188869E8224CF843009F09BCF0E94EB
:1047E000F01181E693E004C00E94F01180E993E0AB
:1047F0000E9471118FCF0E94F01189E793E0F8CFEA
:1048000028960FB6F894DEBF0FBECDBFDF91CF91D3
:104810001F910F91FF90EF90DF90CF90BF90AF90DE
:104820009F908F907F906F905F904F903F902F90D0
:1048300008952F923F924F925F926F927F928F9244
:104840009F92AF92BF92CF92DF92EF92FF920F931F
:104850001F93CF93DF93CDB7DEB7C557D1090FB6FE
:10486000F894DEBF0FBECDBF4B015A0169016F96B0
:10487000FFAEEEAE6F972091040B3091050B409187
:10488000060B5091070BDC016D917D918D919C91F0
:104890000E945E620E94CC68AD966CAF7DAF8EAF19
:1048A0009FAFAD972091080B3091090B40910A0BF7
:1048B00050910B0BF40160817181828193810E9480
:1048C0005E620E94CC68E1966CAF7DAF8EAF9FAF09
:1048D000E19720910C0B30910D0B40910E0B5091F4
:1048E0000F0BD5016D917D918D919C910E945E621F
:1048F0000E94CC68E5966CAF7DAF8EAF9FAFE59719
:104900002091100B3091110B4091120B5091130B11
:10491000F60160817181828193810E945E620E94B2
:10492000CC68A5966CAF7DAF8EAF9FAFA5978091F9
:10493000D10A83FF0EC0A5962CAD3DAD4EAD5FAD47
:10494000A59720937B0B30937C0B40937D0B50936A
:104950007E0B8091CF0A9091D00A892B11F00C9494
:10496000A533D8013C9011962C9011971296BC91CA
:10497000BFAFF801F3812C96FFAF2C978091690BA4
:1049800090916A0B891B80958F7019F40E94571FB4
:10499000F5CF2091690BE6962FAFE6978091690BD2
:1049A000482F50E05CAF4BAF57E4859FC001112406
:1049B000DC01A15AB94F6596BFAFAEAF6597809144
:1049C0006F0B9091700BA091710BB091720BAD9623
:1049D0002CAD3DAD4EAD5FADAD97281B390B4A0BED
:1049E0005B0B2BAB3CAB4DAB5EAB8091730B9091F3
:1049F000740BA091750BB091760BE1968CAC9DACCD
:104A0000AEACBFACE197881A990AAA0ABB0A80919A
:104A1000770B9091780BA091790BB0917A0BE5967A
:104A20002CAD3DAD4EAD5FADE597281B390B4A0B64
:104A30005B0B2FAB38AF49AF5AAF80917B0B909196
:104A40007C0BA0917D0BB0917E0BA596CCACDDAC20
:104A5000EEACFFACA597C81AD90AEA0AFB0A09F41A
:104A600074C080915E0681112AC060914A0B7091DA
:104A70004B0B80914C0B90914D0B0E94CB6720917A
:104A80004702309148022150310962177307BCF484
:104A9000A5968CAD9DADAEADBFADA59780937B0BBC
:104AA00090937C0BA0937D0BB0937E0B0E94F01132
:104AB00080E29CE00E947111C12CD12C7601C701CB
:104AC000B6010E94FF61209143023091440240915F
:104AD0004502509146020E945E622B013C0120E09B
:104AE00030E0A9010E94BF6887FF04C077FA709484
:104AF00077F8709420E030E048E453E46091100BC4
:104B00007091110B8091120B9091130B0E945E62B9
:104B1000A30192010E94F86187FF17C0A5962CADF2
:104B20003DAD4EAD5FADA59720937B0B30937C0BD5
:104B300040937D0B50937E0B0E94F01181E09CE02E
:104B40000E947111C12CD12C76018BA99CA9ADA911
:104B5000BEA98827B7FD83959927AA27BB27182FB9
:104B6000B7FC12608FA998ADA9ADBAADB7FD1460BE
:104B7000F7FC1860C701B6010E94FF612091430253
:104B80003091440240914502509146020E945E627B
:104B90006B017C0120E030E0A9010E94BF6887FF23
:104BA00014C1C701B601905820E030E040E05FE357
:104BB0000E945F660E94D26769966CAF7DAF8EAF30
:104BC0009FAF699787E4ABADBCAD8A9FF0018B9F27
:104BD000F00D1124E15AF94F108215AB2FA938AD11
:104BE00049AD5AAD27962CAF3DAF4EAF5FAF27977B
:104BF00057FF0DC050954095309521953F4F4F4F31
:104C00005F4F27962CAF3DAF4EAF5FAF27972B96E8
:104C10008CAE9DAEAEAEBFAE2B97B7FE0DC0882753
:104C20009927DC0188199909AA09BB092B968CAF31
:104C30009DAFAEAFBFAF2B974BA85CA86DA87EA869
:104C400077FE08C07094609450944094411C511CAD
:104C5000611C711C6596AEADBFAD659755964D92C2
:104C60005D926D927C9258972B962CAD3DAD4EADDA
:104C70005FAD2B9759962D933D934D935C935C9725
:104C800027962CAD3DAD4EAD5FAD27975D962D932C
:104C90003D934D935C9390976BA97CA98DA99EA998
:104CA0000E94FF6120914E0630914F0640915006C0
:104CB000509151060E945E626D966CAF7DAF8EAFD3
:104CC0009FAF6D9769A37AA38BA39CA3C501B40181
:104CD0000E94FF6120915206309153064091540684
:104CE000509155060E945E6263966CAF7DAF8EAFA9
:104CF0009FAF63976DA37EA38FA398A76FA978AD8D
:104D000089AD9AAD0E94FF612091560630915706F9
:104D100040915806509159060E945E624B015C0119
:104D200089A69AA6ABA6BCA620915A0630915B062E
:104D300040915C0650915D06C701B6010E945E621B
:104D40006B017C01CDA6DEA6EFA6F8AAB6E04B1655
:104D5000510461047104E4F52B962CAD3DAD4EADCC
:104D60005FAD2B9726303105410551058CF527960F
:104D70008CAD9DADAEADBFAD27970697A105B10532
:104D80003CF520E030E0A901C701B6010E94BF68F0
:104D900087FF04C0F7FAF094F7F8F09487E4ABAD1E
:104DA000BCAD8A9F80018B9F100D1124015A194FB1
:104DB00020E030E0A901C701B6010E945F66F8015A
:104DC000658776878787908B23C0C701B601ECCEB5
:104DD0006F96AEADBFAD6F97CD90DD90ED90FC902E
:104DE00020E030E0A901C701B6010E94F8618823E4
:104DF00009F4C5C287E42BAD3CAD829FF001839FCF
:104E0000F00D1124E15AF94FC586D686E786F08A5F
:104E100087E4ABADBCAD8A9FF0018B9FF00D1124F0
:104E2000E15AF94F69962CAD3DAD4EAD5FAD699736
:104E300021A332A343A354A327968CAD9DADAEAD61
:104E4000BFAD27972B962CAD3DAD4EAD5FAD2B97EB
:104E500082179307A407B50710F4DA01C901841576
:104E60009505A605B70510F4D301C20169962CADCE
:104E70003DAD4EAD5FAD699782179307A407B507A7
:104E800010F4DA01C90127E44BAD5CAD249FF001B9
:104E9000259FF00D1124E15AF94F85A396A3A7A3EE
:104EA000B0A70697A105B10510F40C948833EA5B0E
:104EB000FF4F80914D0680838BA99CA9ADA9BEA907
:104EC000892B8A2B8B2B09F05F9887E4ABADBCADA7
:104ED0008A9FF0018B9FF00D1124E15AF94F818DCB
:104EE000928DA38DB48D892B8A2B8B2B09F08A98F8
:104EF00087E42BAD3CAD829FF001839FF00D112420
:104F0000E15AF94F858D968DA78DB0A1892B8A2BFB
:104F10008B2B29F08091080181708093060169969E
:104F20008CAD9DADAEADBFAD6997892B8A2B8B2B18
:104F300011F40C94A73380914C06882319F081500A
:104F400080934C06129880E280934C06E090300BE0
:104F5000F090310B0091320B1091330B9701A801A7
:104F6000632D722D8FAD2C969FAD2C970E94F8610A
:104F700087FD06C0E32CF22C0FAD2C961FAD2C97AD
:104F800087E4ABADBCAD8A9FF0018B9FF00D11247F
:104F9000E15AF94F85849684A784B088A5019401CD
:104FA00060E070E080E89FE30E9459672B966CAF49
:104FB0007DAF8EAF9FAF2B979701A8010E945E62D5
:104FC0006B017C018091690B9091670B891B8F703D
:104FD0006A968FAF6A97A701960160E074E284E752
:104FE00099E40E9459670E94CC682B013C016A96A3
:104FF0008FAD6A9782508630A0F56091000B70915A
:10500000010B8091020B9091030B641975098609BD
:10501000970916161706180619061CF5660F771F4E
:10502000881F991F6A96BFAD6A972B2F30E050E01A
:1050300040E00E942566CA01B9010E94FF610E94FA
:10504000CB67640D751D861D971D0E94FF619B0136
:10505000AC0160E074E284E799E40E9459676B0157
:105060007C01A7019601C501B4010E945E629B010B
:10507000AC010E945E6263966CAF7DAF8EAF9FAF56
:10508000639787E4EBADFCAD8E9F80018F9F100D81
:105090001124015A194F63962CAD3DAD4EAD5FAD55
:1050A0006397D80111962D933D934D935C9314977C
:1050B00095964D905D906D907C909897C301B2014C
:1050C0000E94FD6127966CAF7DAF8EAF9FAF279793
:1050D0009B01AC01C701B6010E945E620E943D6760
:1050E0000E94D267A1966CAF7DAF8EAF9FAFA197A4
:1050F000F80166AB77AB80AF91AF9E012F5D3F4F5C
:1051000021963FAF2EAF219744E15BE0A7965FAFBA
:105110004EAFA797CE018D969AAB89AB212C312C3F
:1051200090E89BABAFE3AFAB2196EEADFFAD21971F
:1051300021913191419151912196FFAFEEAF21978D
:10514000C701B6010E945E624B015C0120E030E0C5
:10515000A9010E94BF6887FF04C0B7FAB094B7F8EE
:10516000B094A796AEADBFADA7972D913D914D914F
:105170005D91A796BFAFAEAFA7972F962CAF3DAF6F
:105180004EAF5FAF2F97A50194012F966CAD7DAD0B
:105190008EAD9FAD2F970E94F86187FF16C0A501C5
:1051A00094012F966CAD7DAD8EAD9FAD2F970E9473
:1051B00059675B018C0191014BA95FA90E94F861BD
:1051C00087FF03C015010BAB1FABE9A9FAA9219614
:1051D0002EAD3FAD2197E217F30709F0A5CF8DA5BE
:1051E0009EA5AFA5B8A92F968CAF9DAFAEAFBFAFB0
:1051F0002F979C01AD01C701B6010E945E626B0151
:105200007C0120E030E0A9010E94BF6887FF04C054
:10521000F7FAF094F7F8F0948090200B9090210B1F
:10522000A090220BB090230BA7019601C501B401F9
:105230000E94F86187FF12C0A7019601C501B40161
:105240000E9459677B018C0191014BA95FA90E94C3
:10525000F86187FF03C017010BAB1FAB20E030E004
:1052600040E85FE3B1018BA99FA90E94F86187FF25
:1052700035C087E4ABADBCAD8A9F80018B9F100D1C
:105280001124015A194FA1966CAD7DAD8EAD9FAD25
:10529000A1970E94FD6191014BA95FA90E945E62E6
:1052A0000E94D267F80166AB77AB80AF91AF9101F6
:1052B0004BA95FA9B1018BA99FA90E945E62639669
:1052C0002CAD3DAD4EAD5FAD63970E945E62D801DF
:1052D00011966D937D938D939C93149727962CAD87
:1052E0003DAD4EAD5FAD27972B966CAD7DAD8EADD0
:1052F0009FAD2B970E945E6263966CAF7DAF8EAFC1
:105300009FAF639787E42BAD3CAD829FF001839FF5
:10531000F00D1124E15AF94F85889688A788B08C42
:1053200081149104A104B10409F060C0818D928DB3
:10533000A38DB48D892B8A2B8B2B09F057C0858DBB
:10534000968DA78DB0A1892B8A2B8B2B09F04EC08F
:105350002091280B3091290B40912A0B50912B0B57
:1053600063966CAD7DAD8EAD9FAD63970E945E621E
:105370000E943D670E94D2676B017C0147C16D9618
:105380002CAD3DAD4EAD5FAD6D97CA01B9010E9428
:105390005E626B017C0163962CAD3DAD4EAD5FADA1
:1053A0006397CA01B9010E945E629B01AC01C7010B
:1053B000B6010E945F666B017C01A5019401C501E5
:1053C000B4010E945E629B01AC01C701B6010E945C
:1053D0005F660E940D6927E44BAD5CAD249FF00130
:1053E000259FF00D1124E15AF94FEACC69968CAD56
:1053F0009DADAEADBFAD6997892B8A2B8B2B09F480
:105400009AC62091240B3091250B4091260B509188
:10541000270B63966CAD7DAD8EAD9FAD63970E94FB
:105420005E620E943D670E94D2676B017C018091A1
:10543000480690914906A0914A06B0914B066596A0
:10544000EEADFFAD6597218D328D438D548D2BAB25
:105450003CAB4DAB5EAB258D368D478D50A12FAB50
:1054600038AF49AF5AAF21A132A143A154A123962D
:105470002CAF3DAF4EAF5FAF239784159505A605C2
:10548000B70508F461C681149104A104B10481F147
:10549000609138067091390680913A0690913B06EA
:1054A0006C157D058E059F0518F5A30192010E94DC
:1054B000C56527966CAF7DAF8EAF9FAF2797A501CF
:1054C0009401C701B6010E94C56527962CAD3DAD7C
:1054D0004EAD5FAD2797261737074807590740F4A9
:1054E000CA01B901A50194010E94D56569017A013B
:1054F0008BA99CA9ADA9BEA9892B8A2B8B2B31F135
:1055000060913C0670913D0680913E0690913F0669
:105510006C157D058E059F05C8F4A30192010E94BC
:10552000C5654B015C012BA93CA94DA95EA9C7012A
:10553000B6010E94C56586169706A806B90630F41E
:10554000C501B4010E94D56569017A012FA938AD62
:1055500049AD5AAD232B242B252B31F16091400608
:105560007091410680914206909143066C157D052D
:105570008E059F05C8F4A30192010E94C5654B01E9
:105580005C012FA938AD49AD5AADC701B6010E94E3
:10559000C56586169706A806B90630F4C501B4019C
:1055A0000E94D56569017A0123968CAD9DADAEADA3
:1055B000BFAD2397892B8A2B8B2B41F16091440639
:1055C0007091450680914606909147066C157D05C1
:1055D0008E059F05D8F4A30192010E94C5654B0179
:1055E0005C0123962CAD3DAD4EAD5FAD2397C70159
:1055F000B6010E94C56586169706A806B90630F45E
:10560000C501B4010E94D56569017A0187E44BADFB
:105610005CAD849F8001859F100D1124015A194FA4
:10562000F801EE5BFF4FC082D182E282F382C701B4
:10563000B6010E94FD616B017C0163962CAD3DAD0E
:105640004EAD5FAD63970E945967D80151966D9337
:105650007D938D939C9354972DEB37E346E051E473
:10566000C701B6010E945E620E94D267F80161AB79
:1056700072AB83AB94ABC9A0DAA0EBA0FCA0C98A43
:10568000DA8AEB8AFC8A2DA13EA14FA158A52BAB4B
:105690003CAB4DAB5EAB2D8B3E8B4F8B588F89A5B2
:1056A0009AA5ABA5BCA58FAB98AFA9AFBAAF898FB0
:1056B0009A8FAB8FBC8F2F962CAD3DAD4EAD5FADAD
:1056C0002F972D8F3E8F4F8F58A369968CAD9DAD30
:1056D000AEADBFAD6997892B8A2B8B2B09F43FC6E2
:1056E0008E010F5E1F4F1E0191E2290E311C812C8D
:1056F000912C5401D8014D905D906D907D908D015D
:1057000020E030E0A901C301B2010E94F8618823C2
:1057100071F0A3019201C301B2010E945E629B017C
:10572000AC01C501B4010E945F664B015C0120160B
:10573000310601F7C501B4010E940D699B01AC015E
:1057400060E070E080E89FE30E9459674B015C01D4
:10575000AC019B01C701B6010E945E62698B7A8B26
:105760008B8B9C8BA50194016BA97CA98DA99EA90B
:105770000E945E626D8B7E8B8F8B988FA50194014A
:105780006FA978AD89AD9AAD0E945E62698F7A8FFC
:105790008B8F9C8FA50194012F966CAD7DAD8EAD46
:1057A0009FAD2F970E945E626D8F7E8F8F8F98A323
:1057B0006A96BFAD6A97BB2309F41DC6E0916B0BD7
:1057C000EBABF0916C0BFFAB20916D0B66962FAF9E
:1057D000669730916E0B28963FAF28972DEB37E3F5
:1057E00046E855E3BF0166968FAD669728969FAD54
:1057F00028970E94F86187FDFEC58090280690904A
:105800002906A0902A06B0902B06C988DA88EB8872
:10581000FC8880912C0690912D06A0912E06B091C7
:105820002F0623968CAF9DAFAEAFBFAF23972D89C8
:105830003E894F89588D2F962CAF3DAF4EAF5FAF4D
:105840002F978091300690913106A0913206B09149
:1058500033066D968CAF9DAFAEAFBFAF6D97298D00
:105860003A8D4B8D5C8D63962CAF3DAF4EAF5FAFE5
:1058700063978091340690913506A0913606B091D9
:105880003706A1968CAF9DAFAEAFBFAFA1972D8D60
:105890003E8D4F8D58A1A9962CAF3DAF4EAF5FAF57
:1058A000A997C501B4019058A70196010E945E62B4
:1058B0002B013C0123966CAD7DAD8EAD9FAD239742
:1058C00090582F962CAD3DAD4EAD5FAD2F970E94F9
:1058D0005E629B01AC01C301B2010E945F662B01B5
:1058E0003C016D966CAD7DAD8EAD9FAD6D979058C2
:1058F00063962CAD3DAD4EAD5FAD63970E945E6289
:105900009B01AC01C301B2010E945F662B013C0107
:10591000A1966CAD7DAD8EAD9FADA1979058A99627
:105920002CAD3DAD4EAD5FADA9970E945E629B016F
:10593000AC01C301B2010E945F6627966CAF7DAFD8
:105940008EAF9FAF27972FEE3FEF4FE75FE30E94A9
:10595000BF6818160CF448C52FEE3FEF4FE75FEB1A
:1059600027966CAD7DAD8EAD9FAD27970E94F861F7
:1059700087FF0AC08FEE9FEFAFE7BFEB27968CAF94
:105980009DAFAEAFBFAF2797A5019401C701B60188
:105990000E945E662B013C0149825A826B827C82A6
:1059A00023962CAD3DAD4EAD5FAD23972F966CADDC
:1059B0007DAD8EAD9FAD2F970E945E662F966CAF2A
:1059C0007DAF8EAF9FAF2F976D837E838F83988738
:1059D0006D962CAD3DAD4EAD5FAD6D9763966CADE4
:1059E0007DAD8EAD9FAD63970E945E666D966CAF88
:1059F0007DAF8EAF9FAF6D9769877A878B879C87C6
:105A0000A1962CAD3DAD4EAD5FADA197A9966CAD05
:105A10007DAD8EAD9FADA9970E945E6663966CAF1B
:105A20007DAF8EAF9FAF63976D877E878F87988B93
:105A3000DE0111962196BFAFAEAF21978E010F5EAA
:105A40001F4F1D01C12CD12C7601F1018190919045
:105A5000A190B1901F0120E030E0A901C501B4017F
:105A60000E94F861882371F0A5019401C501B40179
:105A70000E945E629B01AC01C701B6010E945F6695
:105A80006B017C010215130501F7C701B6010E94E5
:105A90000D699B01AC0160E070E080E89FE30E942B
:105AA00059676B017C01AC019B01C301B2010E94EB
:105AB0005E6269837A838B839C83A70196012F960C
:105AC0006CAD7DAD8EAD9FAD2F970E945E626D83F4
:105AD0007E838F839887A70196016D966CAD7DAD0F
